:1000000000802020DB3A0000D33A0000D33A000001
:1000100000000000000000000000000000000000E0
:10002000000000000000000000000000D33A0000C3
:100030000000000000000000D33A0000D33A0000A6
:10004000D33A0000D33A0000D33A0000D33A00007C
:10005000D33A0000D33A0000D33A0000D33A00006C
:1000600000000000D33A0000D33A00000000000076
:1000700000000000D33A00003D0B0000D33A00001E
:10008000D33A0000D33A0000D33A0000D93600003A
:10009000D33A0000D33A0000000000000000000046
:1000A000D33A0000D33A0000000000000000000036
:1000B000D33A000000000000D33A0000D33A000019
:1000C000F0B5FFB08EB00493069206469298029067
:1000D0000025E84305908C913468204603F0ACFC81
:1000E00021188B9503918C4200D3C2E000208790A9
:1000F00087A908738890059889902F46049D2078D9
:10010000002800D1B8E0252805D0641C3460069989
:10011000A8477F1CF3E78B97601C306087AC2046B4
:10012000314600F0C1F88CAA2046314600F0DDF8D7
:10013000306801787A2925D0682919D06A2908D031
:100140006C290ED0742908D04C2922D1879980229D
:100150001BE087990122D20217E0879901225203FE
:1001600013E0427887996C2A6AD10122120205E0D5
:1001700042788799682A66D10122520211438791F9
:10018000801C05E08799012212030A438792401CD4
:100190000178441C346087A80173732913D06E2939
:1001A0001DD1879836490840411E02464A408A427E
:1001B0003DD900282DD04142014032484143C80E6C
:1001C00031A1085C26E087A80078400619D4009584
:1001D00087A88CAA8BAB069900F046F92BE007ADF7
:1001E00087A98CAA284600F095F902462846069968
:1001F000029B9847411C059D00D0C5198B9503991A
:100200001BE0009587A88CAA8BAB069900F0C9F873
:1002100011E02020401F082809D8C0467844007902
:1002200040008744210404151C04150404008C9824
:1002300002C88C900F6003998B9D681C1BD052E7FD
:10024000401C402201E0401C2022114387919FE77F
:10025000F8178C9904C98C9117605060EBE78C9863
:1002600002C88C900F70E6E78C9802C88C900F80C3
:10027000E1E72F4600E0059F38467FB00EB0F0BDA5
:10028000603F000031B57C0700011C021D0E180301
:100290001E16140F191104081F1B0D171513100734
:1002A0001A0C12060B050A0910B50A680124E307A7
:1002B0001AD01378302B0CD0232B0ED02B2B0AD036
:1002C0002D2B04D00024202BF1D1042306E00123A0
:1002D00004E0102302E0022300E0082304681C432A
:1002E0000460521C0A60E1E710BDFEB516460D46DB
:1002F0000446086802782A2A10D13068011D31604E
:1003000000686060002805D54042606020680121D7
:10031000014321602868471C2F6017E00021303A14
:10032000092A08D84218531C2B60435C6F467B5443
:100330005278491CF3E76A46002353541278471851
:10034000002A03D0684602F063FD606038782E28EA
:1003500026D1781C286079782A2908D13068011DB7
:1003600031600068A0602868401C2860FEBD002045
:100370003039092908D839188A1C2A604A786B460E
:100380001A548978401CF3E76A460021115410780A
:10039000002804D0684602F03BFDA060FEBDA160CD
:1003A000FEBDF0B587B01E460C9F13681C1D14607F
:1003B0001D68002D3AD0049106908468002C04D466
:1003C000284603F031FB844203D3284603F02CFB7C
:1003D000044606984068A042039000DC204601468F
:1003E00030680191401805940399A142029630604B
:1003F0000EDD06980078C0070AD1059801990E1AFB
:100400000024B44204DA20200499B847641CF8E7B9
:100410000026049C069805998E420ADA2868010A8B
:1004200018D12D1D2146B847761CF3E70020B847A8
:1004300018E00599039A8A4214DD0078C00711D0AC
:100440000198451A0024AC420CDA20200499B847E0
:10045000641CF8E70020C0430299086003F02EFBFB
:100460005821016007B0F0BDF0B585B00C460646D6
:100470000A9D1068011D116000680490002844D096
:100480000393B768002F04D4049803F0D5FA874289
:1004900003D3049803F0D0FA074602967268BA4272
:1004A000114600DC3946039B186800914018019200
:1004B000BA4218600FDD02980078C0070BD100988F
:1004C000C01B039000260398864204DA20202146B0
:1004D000A847761CF7E70026BE4205DA0498805D3F
:1004E0002146A847761CF7E70198B84210DD02982C
:1004F0000078C0070CD00098C61B0027B74207DA67
:1005000020202146A8477F1CF8E700202146A84765
:1005100005B0F0BDF0B58BB004920D460446FF2146
:100520000846FA3027186868059000260996069153
:10053000FE3120222046029203F0DCF87F2080006A
:1005400021180A9103973E71287B0246613A172AC7
:1005500008952BD8012393402546C34C23422C46B3
:1005600009D009A90AAA089D2846049B00F082F92F
:1005700000260796B9E0712423422C46089D22D11B
:10058000022A13D1049B1868021D1A600068C2B2C7
:10059000534253410793069AFC32A2180A920870FC
:1005A000286802218843286000269EE001464539DC
:1005B000032908D3252800D180E0412803D05828FA
:1005C0000796CED092E00194049A1068C01D0721CE
:1005D0008843014608311160076846682D7B2C4628
:1005E0007B3C384631463A46334602F0C5FD00288A
:1005F00000D021E10120C007314681439B4848409B
:1006000038431FD0F60F00200790284641380628AF
:100610003FD9613D062D019C00D922E1A80002A22C
:100620001058089D8746C046A9060000EB0600004A
:10063000EB060000EB060000E1060000D506000016
:10064000C90600000022384631460792134602F0E0
:10065000EEF81921CA436921049149216E254E23E0
:1006600066274626944200D33E46039AD670019CE4
:1006700000D32B46937000D3049951703F21C900D9
:1006800061180A910028089D14D02D2010700426AE
:100690002BE0019C089DC0467844007940008744C7
:1006A000032424241F1913000AAB38462A4600F0FD
:1006B000F9FB1AE02B201070032616E00020607072
:1006C00025202070012086E00AAB38462A4600F03B
:1006D000EFFC0AE00AAB38462A4602F026F904E0AD
:1006E0000AAB38462A4601F079F9287B01250146F4
:1006F0006F39092904D801228A405D490A4201D193
:1007000058286AD1059B0595E5180A980899097833
:10071000C907274609D10399091D091A089A526881
:100720009142274601DC691A4F1C411C0698430080
:1007300000263846324602F0C7FE0A900799002983
:1007400003D0411C0A91067000E00146A94206D878
:10075000481E691A491C202202F0CCFF2E70089D09
:100760002878C00605D4391B2022204602F0C2FF9B
:100770002CE0A7422AD0391B30262046324602F010
:10078000B9FF09984142414105980140012905D12D
:100790002878400702D43846214604E03878611CA6
:1007A0002070781C3E702A7B412A0CD0582A05D034
:1007B000612A08D0782A01D0702A07D12B781B072C
:1007C00001D4612A02D142784A704670204603F073
:1007D00033F9079940180BB0F0BD002E09D0012E57
:1007E000059B90D1012009900898016802200840DB
:1007F00007E0099A0898016802200840002A08D0FA
:10080000059B0A994A1E0A922D220A7045424541CB
:1008100079E70028059B08D1480700D473E70A98B8
:10082000411E0A91029901706DE70A98411E0A91D2
:100830002B210170002566E71920C5436122412163
:100840006E234E20AC4200D31846039BD87000D3D1
:100850001146039A91700A92507000200790022668
:10086000019C089D41E7C04608C190000000F07F50
:1008700043020000F8B514460F460546806800287C
:1008800004D4286810218843286001E00120A86072
:10089000287B1026582808D0782806D0702804D045
:1008A0006F2801D1082600E00A262846194600F0E4
:1008B00055F8AA68002A09D102460A4306D12878C9
:1008C000000749D52B7B0020024612E02B7B642BCE
:1008D00003D16423002905D40AE0692B08D100293B
:1008E00006D5692301223A60002240428A4100E095
:1008F0000A4600941146324600F0CEF8A9688842B4
:1009000006DA401C21684A1E226030220A70F5E790
:10091000287B582803D0782801D070280FD1297857
:1009200009070CD5702800D1782021684A1E226062
:1009300008702068411E216030210170287B6F28DB
:100940000AD12878000707D520684178302903D0DC
:10095000411E216030210170F8BDC04610B5037BF7
:10096000702B05D10868021D0A60006800227BE038
:1009700002683E481040421E04465440944216D934
:10098000002807D04242024039485043C00E39A2E5
:10099000105C00E02020401F082808D87844007927
:1009A000400087444C04041E38041E040400002246
:1009B0001846643814280DD8012484403548044270
:1009C0000AD12120044205D00868021D0A6000688F
:1009D000C21749E0582B46D10868031D0B60006818
:1009E00042E018466438142807D80122824029487A
:1009F000024206D12120024203D10020582B024698
:100A000032D10868C21D07208243104608300860B2
:100A10001068526828E0002218466438142807D865
:100A2000012484401B48044204D121200442CBD13C
:100A3000582B18D10868031D0B60007814E00022C1
:100A400018466438142807D8012484401148044209
:100A500004D121200442B7D1582B04D10868031DCA
:100A60000B60008800E01046114610BD603F00009A
:100A700031B57C0700011C021D0E18031E16140F51
:100A8000191104081F1B0D17151310071A0C120655
:100A90000B050A0900081200FEB501920D46064634
:100AA000582B01D0174800E0154800900898029094
:100AB0003046284305D1029A1068411E116030214A
:100AC0000170019C3046284313D030462946224607
:100AD00000F01AF807460D46224602F0E3FC301AF1
:100AE0000099085C029B19684A1E1A6008703E460D
:100AF000E8E70298006802F09FFF401EFEBDC04676
:100B0000483C0000593C000080B5102A06D0082A55
:100B100009D1C0084A078018C90880BD00090A0722
:100B20008018090980BD002904D1114602F0B4F9EA
:100B3000002180BD002302F029FF80BD10B59CB0CC
:100B40001AA8002116910170CD48159002F028FCDA
:100B50001598169902F070FC01462020401A19A938
:100B60000870C84802F07CFE00280AD1FFE7C5489B
:100B700002F002FF19AB1A78511C1970C24988544F
:100B8000FFE7FFE719A800780B2800DA60E11BA94E
:100B9000002008701AA801780B2048431890FFE73E
:100BA00018981AA90A780B2151430A3188420CDAA5
:100BB000FFE71899B448415C1B9840181BA90870BE
:100BC000FFE71898401C1890EAE71AA800780B2154
:100BD0004143AD48405C552800D030E11BA8007867
:100BE0001AA90A780B215143A74A8918897A8842A1
:100BF00000D024E11AA801780B204843A2494018EC
:100C0000407851285CD1FFE71AA8119001780B2099
:100C1000139048439C4912914118C8780002897882
:100C2000401800B202F01AFB9A4A0F929B4B1093A5
:100C300002F03CFF02F03AF8119A12990346139819
:100C4000934C14942382127850434118487900023F
:100C50000979401800B202F001FB0F9A109B02F0D4
:100C600025FF02F023F8119A129903461398638224
:100C7000127850434118C87900028979401800B2AF
:100C800002F0ECFA0F9A109B02F010FF02F00EF83F
:100C9000119A129903461398A3821278504341186F
:100CA000487A0002097A401800B202F0D7FA00220E
:100CB0007B4B02F0FBFE01F07BFC1499C860BDE0A9
:100CC0001AA801780B2048436F49401840785228F1
:100CD00047D1FFE71AA8099001780B200B904843F1
:100CE00069490A914118C87800028978401800B211
:100CF00002F0B4FA674A0C92674B0D9302F0D6FEED
:100D000001F0D4FF099A0A9903460B98604C0E949F
:100D1000E38212785043411848790002097940185B
:100D200000B202F09BFA0C9A0D9B02F0BFFE01F09C
:100D3000BDFF099A0A9903460B9823831278504302
:100D40004118C87900028979401800B202F086FA89
:100D50000C9A0D9B02F0AAFE01F0A8FF0E994883A1
:100D60006BE01AA801780B204843474940184078A7
:100D7000532861D1FFE71AA8059001780B2008904D
:100D80004843414906914118C878000289784018C3
:100D900000B202F063FA3F2213060293002203928C
:100DA00002F088FE039A394B049302F083FE01F0AF
:100DB000FFFB059A069903460898354C0794636033
:100DC000127850434118487900020979401800B25E
:100DD00002F044FA029B039A02F06CFE039A049B11
:100DE00002F068FE01F0E4FB059A069903460898B4
:100DF0002360127850434118C8790002897940185D
:100E000000B202F02BFA029B039A02F053FE039AFF
:100E1000049B02F04FFE01F0CBFB059B069A07995D
:100E2000044608988C601B7858438218507A000258
:100E3000127A80188883FFE7FFE7FFE7FFE719983A
:100E40000B3819A908701A98401C1AA9087099E65D
:100E50000C4817A9042201F0C1FD0B4A0848009074
:100E60000021019102F038FA00980199202202F045
:100E70003BF90098019902F0A6FA1CB010BDC046DB
:100E800000A0424000201040B801202000806640B1
:100E9000DC012020FCA9F1D24D6230404D620040BF
:100EA00000005940F0B5A5B0059308920D460746DD
:100EB00000260A967A4C3246234601F0C1FC0028EF
:100EC00000D12C46354600D13D46284621463246C3
:100ED000334601F0A3FC46424641002807D10AAA46
:100EE0002846214601F06CFC0A98401E0A9008989A
:100EF000007B0BAF412801D06B4800E069480990A6
:100F000008988068019030200490387000222846AC
:100F100021460292134601F08AFC0121002801D0EB
:100F2000C80744400391781C0790002E0DD024AAD6
:100F30002846214601F044FC249801210A1A28463B
:100F4000214600F01FFF05460C462846214601F0C9
:100F5000ADFE0646079901F0BCFC0690304602F053
:100F60007DF902460B462846214600F091F90446D9
:100F70000D460198471C20D3079806994618002271
:100F800020462946134601F049FC002848D100229A
:100F900020462946454B02F08DFD04460D4601F0E2
:100FA00085FE0999095C771C317002F057F902F04F
:100FB00062FD04460D463E46E1E70BA80699461839
:100FC000002F16D07F1E002220462946374B02F004
:100FD00071FD04460D4601F069FE0999095C32462F
:100FE000761C517002F03AF902F045FD04460D46B8
:100FF000E6E73178099C204602F0DBFC001B08285C
:101000000EDB0196741E089D029F099E21783046D2
:1010100002F0CFFC801B0E2805DD2770641EF5E76B
:10102000089D029F04E00999081840782070019EED
:1010300037700A98297B4129059C01D0702100E076
:101040005021069E079F224601F045FDAA68501CCC
:1010500004D1384602F0F0FC421EAA603846314600
:10106000234602F0A1F8A8680028039A02D1286854
:101070000007C20F38463146234601F03BFB287B70
:10108000412801D0782000E0582021684A1E2260C3
:1010900008702068411E21600499017025B0F0BDE0
:1010A0000000F0FF483C0000593C000000003040C8
:1010B000F0B5A3B01E460F4604460392916800297E
:1010C00003D0002904D5062100E0012103988160A6
:1010D00007910AA830210891017000222046394664
:1010E0000992134601F0A3FB01210028049101D0CD
:1010F000C8074740634D20463946614A2B4601F0F8
:10110000B1FB00280BD00022204639465F4B02F08D
:10111000CDFC04460F460998401C0990EBE70025DA
:10112000204639462A462B4601F078FB002813D189
:10113000002220463946544B01F079FB00280BD0A1
:10114000002220463946514B02F0B4FC04460F46BB
:101150000998401E0990E3E702960AA8461C20461B
:10116000394601F0A3FD0596314601F0B2FB07991F
:101170008842019004DD481C0AA90B18085C20E095
:10118000C9430E180AA90B180793581C069020464D
:10119000394601F08BFD02F061F802460B4620460D
:1011A000394600F075F80022384B02F083FC044603
:1011B0000F4601F07BFD069B303007994870761C86
:1011C000E2D3C0B23528029E039F0DD3581E01788A
:1011D000491CCAB201703A2A03D330210170401E63
:1011E000F5E70AA9884241D0099801990C181D70A9
:1011F0000220C043844202DBB868844207DD601EDF
:10120000397B891EC9B2324601F065FC012405987C
:1012100002F012FC401E0499A0421ADB0028089A32
:1012200001D4059A125C1346303B5D1EAB41C943A5
:101230001943C90705D13978090702D40025049953
:1012400005E031684B1E33600A7001250021401E05
:10125000E2E73868082202402A43501E824105987E
:101260002146334601F046FA23B0F0BD581E002156
:101270000170099801990818441C0AA80590B7E75D
:101280000000C0FFFFFFDF410000F03F00002440EE
:10129000FCB40124E407634002E0FCB40124E40749
:1012A00008B41D03ED08D60D354356025F007F0DCF
:1012B00006D12C00344300D0AEE001B0FCBC704736
:1012C000A408254307242402FF34A74205D10020A7
:1012D000190D090501B0FCBC7047002B03D5002493
:1012E000A61BAC4125000B03DB08C20D13434202D1
:1012F0004800400D07D11C00144300D08CE00EBC08
:101300001000F0BC70470124640723430724240223
:10131000FF34A04205D10020090D090501B0FCBC35
:101320007047002903D50024A21A9C412300C11B49
:1013300008D51C002B0025001400320026000024D4
:10134000611A3800362925D502B4393949420C00D2
:10135000203C03D22F008F40374301E03700A740E5
:10136000002F01D040210E4302BC20290BD50029BB
:101370000ED04C42203420B4A5402C0020BC0D419E
:10138000CE40361904E000292E000D4120390E41CF
:1013900092196B411C0014433ED00024002B04D54D
:1013A000012400218A1A99410B00401E52005B4122
:1013B000FBD50121890215000D400CD052180027E1
:1013C0007B4101D3401C0BE00721C90115000D40F2
:1013D00001D189008A43072109028A4352005B41F7
:1013E000801C19DD07210902FF31884209D30EBC98
:1013F0000020C90F0902FF31C900C91D0905F0BC51
:101400007047190B00050143E40721431805120B2F
:10141000104301B0FCBC70470021002001B0FCBCAF
:101420007047704780B58AB0092002F095F90A200C
:1014300002F092F91E20072102F0C2F80120039069
:1014400081034C48089002F063F90D20082102F056
:10145000B7F84948802102F05BF91420022102917B
:1014600002F0AEF80299152002F040F8029920200F
:1014700002F03CF8312002F063F9192002F060F923
:101480001A2002F05DF9172002F05AF9162002F036
:1014900057F9039800210591009142040492C30476
:1014A0000693102001F0B6FB049A0599069B009163
:1014B000112001F0AFFB049A0599069B00911B20B7
:1014C00001F0A8FB049A0599069B00911C2001F0ED
:1014D000A1FB059A069B00922C20114601F09AFB75
:1014E000059A069B00922A20114601F093FB059A6B
:1014F000069B00922520114601F08CFB059A069B65
:1015000000922320114601F085FB059A069B00926C
:101510002F20114601F07EFB059A069B0092372092
:10152000114601F077FB059A069B00923620114682
:1015300001F070FB059A069B00923B20114601F0DA
:1015400069FB08980D49079102F0DAF907990898A4
:1015500002F0DEF808980A4902F040F808980949B4
:10156000099102F011F80898099902F01BF80AB0E5
:1015700080BDC04600200A4000000A40C00640006E
:10158000000FC00330180000F0B585B01D461646A8
:101590003021029000910170002410461946224625
:1015A000234601F044F9002802D00120C00745403D
:1015B0000B9801900A9804903E4F304629463C4AC9
:1015C0003B4601F04FF9002809D000223046294659
:1015D0003A4B02F06BFA06460D46641CEDE7002715
:1015E000304629463A463B4601F018F9002811D109
:1015F000002230462946304B01F019F9002809D065
:101600000022304629462D4B02F054FA06460D467C
:10161000641EE5E70298401C0390049800190490AA
:101620003046294601F042FB039901F052F9039933
:1016300009180019019A10600498441C012C1ADB47
:1016400004913046294601F031FB01F007FE0246C5
:101650000B4630462946FFF71BFE0022174B02F0CF
:1016600029FA06460D4601F021FB3030049A511C40
:101670001070641EE4D1481E0278352A0DD3891EED
:10168000009C0A78521CD3B20A703A2B02D30C7019
:10169000491EF6E7029A914203D00770039805B0FD
:1016A000F0BD077001990868401C08600298F6E7D1
:1016B0000000C0FFFFFFDF410000F03F00002440BA
:1016C000FCB40C005C40E40FE40710B41D032D0BC8
:1016D00056006D4176006D415F007F0D78D001248A
:1016E000A405254307242402FF34A74267D00B0337
:1016F0001B0B42005B4152005B414800400D67D02C
:101700000124A405234307242402FF34A04256D019
:10171000C01B002100273724AB4200D1B24204D3C2
:101720007F414941921BAB4101E07F414941641E29
:1017300006D0002B01D1002A02D052005B41EBE71A
:10174000202C07D2172C0AD33900A7402026361B9D
:10175000F1400BE0203C3900A140002706E0A14009
:101760002026361B3D00F5402943A7400124A4054F
:10177000214206D100247F1C61417F004941401E67
:1017800002E00024BF1C61410124E405214202D093
:10179000401CA14301E06408A14303242402FF3458
:1017A000001915DD2419A04209D88C078908000505
:1017B0000143B808204310BC2143FCBC7047002003
:1017C000FF21C900C91D090510BC2143FCBC70479D
:1017D0000021002001B0FCBC70477047F0B5394AC9
:1017E0008218394BC0183A4D4C790B79002C22D015
:1017F000466F202B02D00524E70100E0354F2E4034
:10180000002B00D188273E434667846F2C403C4321
:101810008467446B2D4E34404463846B344084634E
:1018200000244465846554688F26F6433440546030
:101830009468344094600C688979202B09D006465E
:101840007036002B15D1641E4460C46E2C4088276E
:1018500015E0641E4460C46E2C401E4E3443C466C2
:10186000046F2C40344304671B4D01246707064670
:1018700007E00527FF0164084460C46E2C403C4328
:10188000C46634682C403C433460C46A0F4D2C401D
:10189000C462046B2C4004630024C4640465C46FF8
:1018A0008F25ED432C40C46714682C401460194305
:1018B00002680A4B1340BD220A40D118891C0160FE
:1018C000F0BDC04684180000041800008888FDFFA1
:1018D00024493E0001040000FFFFFFCF4000FFCF7E
:1018E000B0B53A4A80184A6842600A78222A56D827
:1018F000930001A4E3589F46951900009F1900002A
:10190000951900009F1900009F1900009F19000001
:101910009F1900009F1900009F1900009F190000E7
:101920009F1900009F1900009F1900009F190000D7
:101930009F1900009F190000851900009F190000E1
:10194000851900009F1900009F1900009F190000D1
:101950009F1900009F1900009F1900009F190000A7
:101960009F1900009F1900009F1900009F19000097
:101970009F1900009F190000851900009F190000A1
:1019800085190000036803242407A3430124640786
:101990001B1903E0036803242407A34303600B69B6
:1019A000C360CB68C46A0A4D25400A4C1C402B1901
:1019B000C3620368084C1C400460097A1143026842
:1019C0003F239A43194051180160B0BD041800002C
:1019D0008888FDFF777702007F00FFFFF0B59FB09A
:1019E00003930E46054604929168002902D506210C
:1019F0000498816002910024344F284631462246E3
:101A00003B4600F01DFF002800D13746264600D196
:101A10002E46304639462246234600F0FFFE002877
:101A200020D100242A4D02F033F800F000FF0028F6
:101A300009D0002230463946264B02F03BF80646D4
:101A40000F46641EEFE7234D02F022F800F001FF7D
:101A5000002807D002F01CF802F028F806460F46CE
:101A6000641CF1E7029905A80091019006A832468E
:101A70003B46FFF789FD0646059F022F049D08D1CE
:101A8000641C304601F0D8FF3018401E0021017060
:101A90000127297B2046039C224601F01CF8AA68F6
:101AA00030463946234601F07FFB304601F0C4FF43
:101AB000874203D128680007C20F00E001223046A8
:101AC0003946234600F016FE1FB0F0BD0000F0FFBF
:101AD0000000F03F0000244080B588B007A9002036
:101AE0000290087001F096FD029801210905032279
:101AF000520401F081FD0298039001F085FFFFE799
:101B000001F07AFF00280CD1FFE72B4801F0AEFF6F
:101B10000398401C03900398422801D3FFE700E09C
:101B2000EEE701F09DFF0590012001050204002071
:101B3000019001F061FD0198039001F065FFFFE75E
:101B400001F05AFF00280CD1FFE71B4801F08EFF7F
:101B50000398401C03900398422801D3FFE700E05C
:101B6000EEE701F07DFF069005997D20C000484317
:101B7000069901F091F90490049801F081FC00228B
:101B80000E4B00F06FFE00280FD0FFE7049801F025
:101B900077FC0022D2430A4B00F049FE002804D013
:101BA000FFE707A901200870FFE707A800780121D7
:101BB000084008B080BDC046D10300000079A340B2
:101BC000FF96A340FCB50C005C40E40FE40710B4A2
:101BD000DD02540D2543D6025F007F0D60D0012445
:101BE000E407254307242402FF34A74250D0CB0248
:101BF000440D2343C2024800400D51D00124E407A4
:101C0000234307242402FF34A04241D0C01901B469
:101C10001800290001F0DCF90F0001B418003100B0
:101C200001F0D6F903000C001000310001F0D0F9EA
:101C300006001000290001F0CBF9050076180022FB
:101C400002BC01BC55415141A41955415141802468
:101C5000A4005B195141FF18514100D564003F19A0
:101C6000514102D47F00494100E0401C032424027A
:101C7000FF34001B14DD2419A04209D80305F80A1B
:101C80004C0520434900090B194310BC2143FCBDFE
:101C90000020FF21C900C91D090510BC2143FCBD5E
:101CA0000021002001B0FCBDF0B584B03049314ABC
:101CB0000125AC0316682B0203939E4316600E6841
:101CC000264205D10E68264202D10E682642F6D081
:101CD0006C02467E9769AF432E40BD199561202561
:101CE000455DD6690327BE433D407519D561224D38
:101CF0002E680727374005262E60466A3368136230
:101D0000736853622F60C3695B065B0CD5697F26DD
:101D10003602B543EB18D361E8C80097076801970E
:101D2000476802971B071B0B2D03ADB2ED18330755
:101D30001B0D007A009E35431D43019B1D43029BF2
:101D40001D43054390690D4B03400D482840C018C2
:101D500090611068039B184310600868204205D109
:101D60000868204202D108682042F6D004B0F0BDD5
:101D700004020B4008010B40001340408D00F0FFAF
:101D800072FF0F00F8B515460C462B4E0A0D771C56
:101D90003A402A4B9A4213D0002A1AD10122D20784
:101DA0009143014345D00022254B214601F082FE9C
:101DB0000C4624498D4209DC234A244B214635E058
:101DC000214602462346FFF768FA31E0220D3A40E9
:101DD000363A5119B1420ADD01F070FE222101604C
:101DE0000120C00704401D482418002021E00129DB
:101DF00004DB174A1440090564181AE03522D2435F
:101E000091420ADC01F05AFE22210160124885420B
:101E1000E6DA0120C0070440E7E70D4A144009054F
:101E20001B2252058918214300220A4B01F042FE71
:101E30000C462146F8BDC046FE070000FF07000023
:101E400000005043AF3CFFFF59F3F8C21F6EA501DD
:101E5000FFFF0F800000903C51C300000000F07FA6
:101E6000FCB40127FF07794002E0FCB40127FF071B
:101E70000C024D002D0E03D1002C52D1FCBC70473A
:101E80003C43FF2D50D0A408002900D56442020233
:101E900043001B0E04D1002A43D10800FCBC70474C
:101EA0003A43FF2B41D09208002800D552425E1BD6
:101EB00004D5170022003C0076422B00192E06D5CF
:101EC00027003741D2191C27F71B7F42BC40002A4C
:101ED00027D002D55242012700E00027013B5200E3
:101EE000FCD51500802635400FD015002026354042
:101EF0002C43803208D21500402635402C4304D1B3
:101F000001263602B24300E05B1C5200023308DDBA
:101F1000FF2B0BD2500ADB051843FF073843FCBCEC
:101F200070470020FCBC70470800C70FFF07FF2068
:101F3000C0053843FCBC704780B592B000200490C7
:101F4000119001F063F804980290204806900190E7
:101F500001210591480200901D488A021D4B0793FC
:101F6000194600F08FFD05990698079B0291019094
:101F70008020009018484022194600F083FDFFF7AA
:101F800050FA132001F03EF900F020FF01F07CF937
:101F900064201090FFE7114800681099884214D31C
:101FA000FFE71098643010900D48806800F094FFAF
:101FB00002460B460B4908A8039001F043F803982A
:101FC00001F00AF900F088F9FFE7E4E70000864035
:101FD000FC01202000200A40140220203002202092
:101FE000DC0120206A3C000080B588B0079007998A
:101FF0000091C8680969FFF733FF009908620798E4
:10200000006A00F015FD0799086207980190016ABF
:10201000006BFFF72AFF0199086307988269012185
:10202000CB0711465940006B00F076FF0799086313
:10203000079902910868096A00F008F90299486353
:10204000079903914868096B00F000F903998863C8
:102050000799059188680490086A496AFFF700FFAC
:102060000146049800F0F2F80599C86307990691B3
:10207000486B896BFFF7F9FE0699C96BFFF7F5FE10
:10208000069948610799086A486208B080BD7047A0
:10209000F0B58B4200D1824204D90B00020000212E
:1020A000002040E0002B00D1002A0CD10B000200E0
:1020B00000210020002B00D1002A01D0C943C043D9
:1020C000FFF7E5FF2FE01C0015000B0002000CB429
:1020D000002126002F00FF19764102D2491C402919
:1020E000F9D100201E001700FF19764102D2401CD2
:1020F0004028F9D10E1A21002800320001F034FAEC
:102100000C0005000CBC00200021A34200D1AA4213
:1021100001D3521BA341404149416D08E7073D43AC
:102120006408761EF1D5059F002F01D03A607B60D0
:10213000F0BD000080B584B01E491F48039001F037
:10214000AFFA03981D49FFF749FB03980023019359
:1021500019461A4600F000FF019B039800931946A8
:102160001A4601F04DFB019A0398114601F08AFAD4
:10217000019A0398114601F04FFC019B039801213D
:102180000291009119461A4601F03AFB0199029A10
:10219000039801F077FA0199029A039801F03CFC48
:1021A000039801F0D5FB0398032101F0DBFB04B099
:1021B00080BDC046F13B0000000086408C3C000022
:1021C00040B542004B005E08164301D006004E4069
:1021D00000D4D01A04D20120C90F06D1404204E035
:1021E00003D90120C90F00D04042FF263606B24273
:1021F00000D8B34200D9012040BD40B542004B0099
:102200005E08164301D006004E4000D4D01A04D216
:102210000120C90F06D1404204E003D90120C90FB3
:1022200000D04042FF263606B24200D8B34201D960
:102230000120404240BD42004B000020FF21090622
:102240008A4200D88B4200D901207047FCB4012794
:10225000FF0706004E4001D4002600E03E000202C7
:1022600043001B0E30D03A43FF2B30D00C024D0000
:102270002D0E29D03C43FF2D29D05B194240504000
:1022800042404C4061404C4000B500F0A1FE20BCF3
:10229000AE464240504042404C4061404C402500D8
:1022A0001400002C01D46400013B803401D30133BD
:1022B00064087E3B08DDFF2B09D2BC43200ADB0506
:1022C00018433043FCBC70470020FCBC7047FF2023
:1022D000C0053043FCBC704780B586B019488168A2
:1022E000194801F096F8014605A801800021405EDA
:1022F0000821C94388420DDBFFE7002105A8405EA5
:10230000092807DCFFE7114801F01FF9104801F028
:102310001CF914E0059904A801800599494203AA13
:102320000292118000210191415E084800F08EF870
:1023300001990298415E064800F088F8FFE706B070
:1023400080BDC046DC01202078012020FC01202037
:102350001402202080B586B01748009001F008FADA
:102360001648019001F004FA1548029001F03CFA79
:102370001448039001F038FA1348049001F07CFAF5
:102380001248059001F078FA009801F0CDF9019813
:1023900001F0CAF9029801F01BFA039801F018FA4B
:1023A000049801F051FA059801F04EFA102001F05E
:1023B0005DFB06B080BDC04600000A4000200A4018
:1023C0000000864000208640008010400020104021
:1023D000F8B5451C00780023082B32D02F78C207AF
:1023E0000CD16A780F241440E41C122C0BD1022467
:1023F0002E57F4B2002E08D4EE1C0EE06D1C4A1CC1
:102400000F7011461AE0AE1C08E02E1DED78009505
:102410007F252C40009DED012C1912343D0112093D
:102420005219094DAA420ED0D243002C05D08D5C22
:102430004F1C0D70641E3946F7E7354640085B1C9B
:10244000CAE72846C5E7F8BDFF0F000080B588B091
:10245000079006A801800021405E002804D1FFE714
:10246000079801F072F82BE0079801900021029183
:1024700006A80390415E01200029049001DC029827
:1024800004900198049900F0E5FC02990398405EDD
:10249000012805DBFFE7002106A8405E009005E06B
:1024A000002106A8405E40420090FFE7009805A981
:1024B0000880079A10690988127D01F0ADFAFFE7DC
:1024C00008B080BD80B582B00020019001F068F9AD
:1024D0000120400201F01AF8019801F0A9F801F07A
:1024E00083FA01F017FA019A03200003402100F05B
:1024F00035F91148FFF7D8FBFFE7FFF7EDFA0028A1
:102500000FD1FFE701F006FA01F018FAFFE701F03A
:10251000A1FA012149020840884201D0FFE7F6E70D
:10252000EBE7102001F092F801F0FEF9002000F036
:102530002BFC02B080BDC046F43B0000FEB5029308
:102540000F46194D0024E143184E00973740019083
:1025500043422B46BB4101D20C4623E00846029978
:102560000E405342B54101D204461BE01346019987
:102570000B433E431E43029D009E13D02B46334027
:1025800004D401998B1A3346AB4103E00199531AE5
:102590002B46B341044605DB51406E400E43701E8E
:1025A000864134462046FEBD0000F07FFFFFFF7FDE
:1025B0000CB41B4B4A00D21A1BD2000D0A03104365
:1025C00001221202801802D3400812038918400A1F
:1025D000002902D50122D20710434900490D3822B3
:1025E0001201891A0CD4FF290DD2C90508430CBC6D
:1025F0007047DB431A40024305D0D8430CBC7047F8
:1026000000200CBC7047C90FC907FF20C005084354
:102610000CBC7047C046C046C046C046C046C04617
:102620000000E0FF80B582B015491648019001F026
:10263000B7F90198144900F05FFB0198002100F000
:1026400075FF019815212D2200F00AFB0198012148
:10265000009101F033F800990198890201F0DCF84B
:10266000019801F0E5F80198202100F071FE009931
:10267000019800F0F3FE019801F022F902B080BD4C
:10268000993C000000201040823C0000F8B5044650
:10269000164F174D0E462E400120009464423C46D2
:1026A000B4411AD31D405442AF4116D31046009C8A
:1026B00020433543054311D00020C0431C460C4045
:1026C0000ED4009CA41A0C469C4106DB0098504096
:1026D00059400143481E81410846F8BD0020F8BD1D
:1026E000009C141B1C468C41F0DAF6E70000F07FDA
:1026F000FFFFFF7FF8B51C4617460E46054601F062
:102700009BF90021012E03DB864201DCA919491E39
:10271000002F04D02268531E23602E2313703246EC
:10272000824206DD23685F1E276030271F70521E1D
:10273000F6E7B04200DB3046012808DBA9420BD3A4
:1027400008782268531E23601070491EF6E720683F
:10275000411E216030210170F8BD0000F0B5164B1C
:102760001D46083D2E680124A6432E601E680327DF
:102770003F03BE433840301818601868FF26B04346
:10278000C9B2401818602868204328601D68002AD4
:102790000ED00A482102220715431D6002680A4232
:1027A00005D102680A4202D102680A42F6D0F0BDA1
:1027B000200785431D60F0BD10010B4004020B4053
:1027C00070B514460F4D0B462B40002222600E4E72
:1027D000B34215D81E46064312D01E0D07D1002263
:1027E0000A4B01F067F90D403522D2432B461B0DF1
:1027F0009A18074BD2182260064A0A400649511817
:1028000070BDC046FFFFFF7FFFFFEF7F000050431A
:1028100002FCFFFFFFFF0F800000E03F10B5FFF755
:1028200035FF002801D0002010BD012010BD10B5DB
:10283000FFF72CFF002801DB002010BD012010BD98
:1028400010B5FFF723FF002801DD002010BD012097
:1028500010BD10B5FFF772FE002801DA002010BD90
:10286000012010BD10B5FFF769FE002801DC002033
:1028700010BD012010BD000010B5FFF7A1FC00281D
:1028800001D0002010BD012010BD10B5FFF798FC4D
:10289000002801DB002010BD012010BD10B5FFF79E
:1028A0008FFC002801DD002010BD012010BD10B5F7
:1028B000FFF7A3FC002801DA002010BD012010BDA5
:1028C00010B5FFF79AFC002801DC002010BD0120A4
:1028D00010BDF0B587B00191064602AD0020E87446
:1028E000123537460A243846214600F04BF8444357
:1028F000391BCA175140891A3031297009376D1EAA
:10290000122F0746EED8002E01D46D1C01E02D20B9
:10291000287002A8441B224614320198294601F06F
:10292000D1F81334204607B0F0BDF0B5FFB086B043
:102930001C4615460246A868002801D50620A86056
:102940002368039304AB0090019305A80B46FEF7A0
:102950001BFE0646049FAA683946234600F024FC65
:1029600020680399814201D0012202E02868000713
:10297000C20F304639462346FFF7BCFE7FB006B093
:10298000F0BD00001CB5002922D04C08002900D55C
:10299000494242105440002800D5404200230A001A
:1029A000904201D95200FBE790425B41904200D334
:1029B000801A914201D25208F6E71900002C00D586
:1029C0004042640000D549420200080011001CBDCD
:1029D00001000020FEF701FF1CBD0000F0B5002A39
:1029E0001DD0124BC318544200201D686D071BD424
:1029F000DD690D5425186E1C0FD21E68760710D4A1
:102A0000DF690E187770AD1C07D01D686D070AD4FA
:102A1000DD69B570C01C8242E7D11046F0BD0020D0
:102A2000F0BD401CF0BD801CF0BDC0460811000088
:102A300080B582B0019001980E49FFF741FF002850
:102A400006D0FFE701980E49FFF70FFA01900DE05D
:102A500001980949FFF719FF002806D0FFE7019800
:102A60000649FFF702FA0190FFE7FFE7019802B07D
:102A700080BDC04600003443000034C30000B443AE
:102A80000000B4C3B0B586B004460C980B9D0A9DF7
:102A9000059404910392029301A908700498059982
:102AA00008600398059988600298059948600A981B
:102AB0000599C8600B9805990861019805990875F2
:102AC000059800F042FD059908690A7D002100F093
:102AD000A3FF06B0B0BD7CB515460C460646C01730
:102AE00031464140081A009200210A226423FDF772
:102AF000D3FF30460930122808D8DF202040502864
:102B000004D02868411E296030210170002E01D4B4
:102B10002B2000E02D2029684A1E2A6008702868B2
:102B2000411E296004707CBD80B582B00F491048F9
:102B3000019000F035FF01980E4900F0DDF8019892
:102B4000002100F0F3FC019815212D2200F088F8F7
:102B500001980321890200F0B1FD0198012100F0E4
:102B60007DFC019800F0ACFE02B080BD973C0000F7
:102B700000801040783C000010B584B0079C069C93
:102B800003900291019200930298039908600198C2
:102B90000399486000980399886006980399C86073
:102BA0000798039988610399002008630399486294
:102BB000039988620399486103994863039988637C
:102BC0000399C86304B010BDF0B581B006465368E0
:102BD00094689589D0890090176950691C432C43EB
:102BE0003C43009B1843000120430B01F3180924C8
:102BF0006402185110785278890071180243044811
:102C00000B58BF24A34322409A180A5001B0F0BDCC
:102C10001011000010B584B0069C0390029101923F
:102C2000009302990198014300980143069A0120FC
:102C300003071A401143084A1143039A9300074AB5
:102C40009950069BC006034003988100885818439A
:102C5000885004B010BDC04681000400048042408A
:102C600080B584B003900291019203980B494018FB
:102C700002990B4A00F01CFB03980A49401801997D
:102C80003F2200F015FB0399074A88188958012252
:102C9000114000F00DFB04B080BDC04610110000D3
:102CA000FFFF000014110000041100000CB54A00E1
:102CB000520D03231B02FF33D21A13D31F239A1A78
:102CC00012D98E46C9020123DB071943D1400B2AD2
:102CD00002D21532D04001437346002B00D5494241
:102CE00008000CBD00200CBD0B000120C007002B0C
:102CF00000D401380CBD000070B511221302C218B7
:102D0000C4580125AC43C4500C888D7825438C8869
:102D10002C43C558084E2E40084D25407419C45008
:102D20008879CB790343087A184351687E23994305
:102D300018400818506070BDE798FDFF1867000044
:102D400080B582B00190019948698969FFF7B8FDA3
:102D5000002804D0FFE701998869486112E00199D1
:102D6000486989690122D2075140FFF78EFD00288A
:102D700007D0FFE7019988690122D20750404861D6
:102D8000FFE7FFE702B080BD10B50E490E4A0123F0
:102D90005C0590600868204205D10868204202D195
:102DA00008682042F6D010681B04034313600868CB
:102DB000C00605D40868C00602D40868C006F6D567
:102DC00010BDC04604020B4004010B4080B582B028
:102DD0000C480090002101910B4A00F0A5FA0098E0
:102DE00001990A4A00F08CFA00980199202200F01B
:102DF00093F90098019900F0F9FA0E2000F018FA02
:102E000002B080BD00A0424024311040B801202013
:102E100010B50F4A017853185B78401CDB06F9D4D3
:102E20002D2901D02B2901D1027801E0401E0A464C
:102E3000431C0020303A092A05D80A2444431019BB
:102E40001A785B1CF6E72D2900D1404210BDC04620
:102E5000F03A000080B582B00190684601700078B9
:102E600000280BD0FFE701990868896800F08CFC06
:102E700001994868C96800F039FD0AE001990868BD
:102E8000896800F033FD01994868C96800F07CFC4E
:102E9000FFE702B080BD00001CB50A0017D0002378
:102EA0000124E407A04200D20400944201D9520058
:102EB000FBE790425B41904200D3801A914201D2DD
:102EC0005208F6E719000200080011001CBD0100BD
:102ED0000020FEF782FC1CBD08B443001B0E0FD07F
:102EE000FF2B11D00721C9015B18C10FC9020B4389
:102EF000010048074902090B1B05194308BC70472C
:102F00000021002008BC704701004002C90DC90023
:102F1000C91D090508BC704780B584B002900191B5
:102F2000009202980199FFF7B0FC002803D0FFE758
:102F3000019803900CE002980099FFF7C1FC00286B
:102F400003D0FFE70098039002E002980390FFE7A8
:102F5000039804B080BD000010B586B001930B4605
:102F600001460198059104A90B8003AB1A8002AABF
:102F700010800598054C001909881B881943128890
:102F80001143034A00F094F906B010BD0418000084
:102F900080FF000070B50A480A4C84420CD00A4DEC
:102FA0000A4EB54208D02A686968501C127892000F
:102FB000A25890470835F4E700BF00BF70BDC04677
:102FC000AC3C0000A03C0000BC3C0000CC3C00003D
:102FD000FCB4020C0B0CFF242402FF3420402140DF
:102FE0000C00444315005D4306005E430F00574349
:102FF000320C3B0CA818C01832043B040025A11861
:103000006841C9186841FCBC7047000080B5FFF7F3
:10301000A1F9FEF707FAFFF755FAFFF78BF800F072
:1030200049F8FFF781FDFFF7FDFA00F03BFD03498A
:10303000B822002088540249885480BD0000202016
:10304000BC00202082B0F8B506920793029101904F
:1030500006A9039107480090074B02A801AAFDF7B3
:103060002FF8019900220A7004B080BC02BC02B0A3
:103070000847C046A93800009B3A000006B5410049
:10308000090E7F390DD41F22511A0CD98646000231
:103090000122D2071043C8407246002A00D54042A0
:1030A00006BD002006BD02000120C007002A00D492
:1030B000401E06BD80B582B008490948019000F065
:1030C000EFFA01980749FEF70BFC0198012100F087
:1030D000CBFA019800F03CFC02B080BD943C0000AB
:1030E00000208640343C000085B000920A460099DA
:1030F000019202460198049203AA107002A801806E
:1031000000880499127812018918024A885005B083
:103110007047C0460C12000085B000920A46009924
:10312000019202460198049203AA107002A801803D
:1031300000880499127812018918024A885005B053
:103140007047C0460C1200000A4A80180268120636
:1031500005D50268120602D502681206F6D481610E
:103160000168C90705D00168C90702D00168C9070D
:10317000F6D170470811000070B5094C214023407A
:10318000002501244042074E30468841204600D3A6
:10319000284651429E4100D32C46204370BDC04674
:1031A000FFFFFF7F0000F07FF8B51C46154606467E
:1031B000571800F041FC711E012D0CDB3022012F4D
:1031C00002DB874200DCCA5D23685E1E26601A703F
:1031D0007F1E6D1EF0E7F8BD80B582B00190FFE75D
:1031E00001980078002808D0FFE70198411C019160
:1031F00001780348FFF7A8FFF2E702B080BDC046A0
:103200000080104081B001466846017000214056A0
:10321000002809D4FFE7684601781F2001400120FB
:10322000884002490860FFE701B0704700E100E014
:1032300081B001466846017000214056002809D43B
:10324000FFE7684601781F200140012088400249BD
:103250000860FFE701B0704700E100E004B4042219
:10326000002802D1002104BC704701D50832404239
:1032700012021F320100521E4900FCD30805090B3F
:103280001205114304BC704780B582B00548019017
:1032900000230093044805491A46FFF76DFC02B06D
:1032A00080BDC0460000FA44780120200000904113
:1032B00084B00390029101920398006800900098F6
:1032C00001998843009000980299019A114008439F
:1032D0000399086004B0704784B0009202460098D9
:1032E000039202AA117001900198039912781201B9
:1032F0008918024A885004B07047C046081200007E
:1033000084B0009202460098039202AA11700190C4
:1033100001980399127812018918024A885004B062
:103320007047C0460812000084B000920246009820
:10333000039202AA11700190019803991278120168
:103340008918024A885004B07047C0460412000031
:1033500080B584B0019101460198039102A90870DB
:103360000398044A801809787022FFF7A1FF04B07F
:1033700080BDC0460C110000084880F3088800BFDB
:1033800000BF00F0ACFB002801D0FFF703FE0020D7
:10339000FEF7D2FD012000F099FBC04600802020FE
:1033A00083B0009101460098029101A9087002982B
:1033B00009780901411809204202885802239843DC
:1033C000885003B0704783B0009101460098029185
:1033D00001A90870029809780901411809204202E0
:1033E000885802231843885003B0704783B0009177
:1033F00001460098029101A9087002980978090114
:10340000411809204202885802231843885003B00B
:10341000704780B582B001900091009801990861D1
:103420000198FEF7E1FD0198FFF78AFC01984069D9
:10343000FFF724FE02B080BD83B0009101460098E2
:10344000029101A9087002980978090140180249FF
:10345000405880B203B070470C12000080B582B0B3
:1034600001900091019805494018009909020F2226
:103470001202FFF71DFF02B080BDC0460C11000014
:10348000002801D10021704704B4042212021F3227
:103490000100521E4900FCD30805090B1205114317
:1034A00004BC704730B514004C4325001C00444355
:1034B0006419050010002900FFF78AFD00190400B7
:1034C0000D002100280030BDB0B504460020002BBF
:1034D00008D0D2B20D782570954204D0641C491CE6
:1034E0005B1EF7D1B0BD601CB0BD000082B0019082
:1034F000009100980349084301998900024A8850C5
:1035000002B07047800004000480424080B582B061
:10351000014601A8018001880F2002020248FFF73E
:10352000C7FE02B080BDC04604010B4080B582B02A
:10353000019000910198112109024018009903227D
:10354000D203FFF7B5FE02B080BD80B582B0019016
:1035500001990868896800F0C9F901994868C96843
:1035600000F0C4F902B080BD18B520239B1A04D81E
:10357000010000205B42994004E004009140DC40DF
:103580002143904018BD000082B001900091009B43
:103590000199034A88581843885002B07047C046C2
:1035A0004810000082B001900091009B0199034AED
:1035B00088581843885002B07047C0462810000051
:1035C00082B0019000910098802108430199890000
:1035D000014A885002B070470480424082B0019096
:1035E0000091009B0199034A88581843885002B003
:1035F0007047C046901300000843104304490A680E
:103600003F231B049A431840101808607047C046B7
:1036100038010B4080B582B0019001991F2002064D
:103620000248FFF745FE02B080BDC04638010B409E
:1036300080B582B0014601A80170017802480322DA
:10364000FFF736FE02B080BD00010B4080B582B0AE
:10365000014601A80170017802483022FFF728FED8
:1036600002B080BD04010B4082B001900091009B2C
:103670000199034A88581843885002B07047C046E1
:103680002810000010B592008018044A83580724BF
:10369000A404A34321405918815010BD30180000E4
:1036A00010B50122120383180C789C604B7883506C
:1036B0008978014A815010BD0C11000082B0019040
:1036C0000091009B0199034A88581843885002B022
:1036D0007047C0462810000080B50448012100F062
:1036E0006BF803490868401C086080BD00208640D4
:1036F000300220200B4611461A4680B500F0A3F98F
:1037000080BD0A46002180B500F09DF980BD000013
:1037100082B00190009100980199024A885002B04D
:103720007047C046D012000081B00090009901207F
:10373000C2020248885001B07047C046010000260E
:1037400081B0009000988100024A8120885001B029
:103750007047C0460480424081B0009000988100CC
:10376000024A0020885001B07047C04604804240A1
:1037700081B000900099024A0248885001B0704719
:1037800004080000030000B182B00190009100988D
:103790000199024A885002B07047C046901200005A
:1037A00081B001466846017000780249086001B0A6
:1037B0007047C04608030B4082B00190009100980A
:1037C0000199024A885002B07047C0464810000074
:1037D00081B0009000990120C2020248885001B0D7
:1037E0007047C0460100002681B000900099024A4F
:1037F0000248885001B0704704080000030000B17F
:1038000010B5029CA400001911431943014A8150CC
:1038100010BDC0465018000082B001900091009881
:103820000199024A885002B07047C0465810000003
:1038300081B00090009911200202885801235B0496
:103840001843885001B0704781B000900099012062
:10385000C2020248885001B07047C04601000026ED
:1038600081B0009000980349405804210840800826
:1038700001B070470811000081B000900099024A21
:103880000248885001B0704704080000030000B1EE
:1038900080B5034A03480021FFF796F980BDC04672
:1038A0001C3C000000A04240B0B514460D46014645
:1038B000286800F007F92868001928602046B0BD84
:1038C00081B000900099112002028858012318430A
:1038D000885001B0704703228058002805D0401E50
:1038E0004A1C00230B701146F7E7704782B0019025
:1038F00000910098019995225201885002B07047BA
:1039000082B001900091009801999522520188504F
:1039100002B0704703490868012212029043086010
:103920007047C04608010B40034908680122120392
:10393000104308607047C04604010B400349086803
:1039400001221202104308607047C04608010B4074
:1039500081B000900099024A0120885001B0704760
:103960000811000082B00190009100980199112285
:103970001202885002B0704781B00090009802494E
:103980004058C0B201B070472411000040B584B067
:1039900002AE0096FEF77CFB029A039B04B040BD8A
:1039A00010B50122120383180C789C60497881506D
:1039B00010BD0278914204D0002A01D0401CF8E7E3
:1039C0000020704710B500239A4203D0CC5CC45449
:1039D0005B1CF9E710BD80B50B4603214258C11DA1
:1039E000184600F06FF880BD024908680122904334
:1039F0000860704708010B4080B500F02BF80121EA
:103A000049060840400E80BD0149024808607047E1
:103A10002C030B400100000E92008018014A8150D7
:103A20007047C0461018000000214258091D002AA6
:103A3000FBD1081F801070470021425C491C002AFE
:103A4000FBD1481E704700239A4202D0C1545B1C30
:103A5000FAE77047014800687047C04604020B400F
:103A6000014800687047C04650010B40811E091F85
:103A700000BFFCD2704702460B4620462946FFE7AE
:103A800082B00094014C019410BD00BF911200005F
:103A90000022304639462B4670470A68531C0B609B
:103AA0001070704780B5FFF7F3FE80BD80B5FDF75D
:103AB00007FE80BD80B5FEF785F880BD00487047E1
:103AC0002C02202080B5FFF77DFF80BD00F003F8B9
:103AD000FEE7FFE7FEE700BF70474DE470470120B7
:103AE000704700000000000000000000000000001F
:103AF00000808080808080808080909090909080F6
:103B000080808080808080808080808080808080B5
:103B100080180404040404040404040404040404D5
:103B20000402020202020202020202040404040469
:103B300004044343434343434141414141414141E3
:103B40004141414141414141414141410404040459
:103B50000404232323232323212121212121212183
:103B600021212121212121212121212104040404B9
:103B700080000000000000000000000000000000C5
:103B80000000000000000000000000000000000035
:103B90000000000000000000000000000000000025
:103BA0000000000000000000000000000000000015
:103BB0000000000000000000000000000000000005
:103BC00000000000000000000000000000000000F5
:103BD00000000000000000000000000000000000E5
:103BE00000000000000000000000000000000000D5
:103BF00000080000030000000000000000000000BA
:103C00004000000000000000000000000200000072
:103C100009000000010000002C00C4411500000054
:103C20000000000000000000000000000000000094
:103C30000000030002000000E70300000100000094
:103C400000000000000000003031323334353637D8
:103C500038394142434445460030313233343536F9
:103C600037383961626364656600616E676C653A16
:103C7000252E3266200D0A000000180000000030DA
:103C8000000000000800000000300000800C000070
:103C900020010100080709080008000000000000DA
:103CA000D1230000D7390000D738000002000000FF
:103CB0002C0200000001000004FFF000AC3C0000FA
:103CC00000002020B43C00002C0220200000000056
:04000003000033794D
:00000001FF
